:020000040800F2
:10000000D01F0020C1370008C9370008CB370008CF
:10001000CD370008CF370008D137000800000000B6
:10002000000000000000000000000000D3370008BE
:10003000D5370008000000000101000881300008E9
:10004000DB370008DB370008DB370008DB37000848
:10005000DB370008DB370008DB370008DB37000838
:10006000DB370008DB370008DB370008DB37000828
:10007000DB370008DB370008DB370008DB37000818
:10008000DB370008DB370008DB370008DB37000808
:10009000DB370008DB370008DB370008DB370008F8
:1000A000DB370008DB370008DB370008DB370008E8
:1000B000DB370008DB370008DB370008DB370008D8
:1000C000DB370008DB370008DB370008DB370008C8
:1000D000DB370008F532000839340008DB37000848
:1000E000DB370008DB370008DB370008DFF80CD00F
:1000F00006F052FD00480047ED010008D01F002027
:1001000072B6EFF30980094A094B203880E8F00FF6
:100110001168086018681060006890E8F00F2030DF
:1001200080F309884EF0040E62B67047C0000020CC
:10013000C400002080F30988704700003548364924
:100140000860CC30354908603548324908601420D1
:10015000486041F2707088606320C8606520086163
:100160001920486101208861232048632C2088637E
:100170003220C8630020486541F27070C8613220A7
:10018000086228484862284888624006C862012000
:10019000086340F2DD711F48A0F86210042180F866
:1001A00061101A2180F85F10112180F85E102E2155
:1001B00080F85D102820174981F85C00002048660F
:1001C000112088660320C866142008671748006855
:1001D00048671648001D00688867144808300068A2
:1001E000C86700210B48C0F81C11704710B5FFF715
:1001F000A5FF0F49086880470D48816E0D48884764
:100200000B48C16E0C4888470949086F804762B6A1
:10021000002010BDC8010020180000201C00002094
:1002200000350C0020F40E00A0860100E8F7FF1F47
:10023000200000209D040008990A0008AE48D0F86C
:100240001C1100F58470814204D12838AA49C1F8F4
:100250001C0106E0A848D0F81C011430A649C1F8DA
:100260001C01704710B5A448D0F81C01006900B902
:1002700010BDA14AD2F81C21126910699F4A516D24
:10028000884700BFF4E710B59B48D0F81C01C4684C
:1002900004E09A4A2069516D8847A469002CF8D17E
:1002A00010BD00219448D0F81C0101619248E03053
:1002B0009149C1F81C01704770B505468E48D0F8C9
:1002C0001C01006904698C483830844209D101203E
:1002D00089494865894881690120884705F0DCFD26
:1002E0000AE085483C30844206D1002082494865B6
:1002F0008248C1690120884770BD70B50446302C22
:1003000013D007DC082C1AD2DFE804F00E1A526072
:10031000104458A5A4F131000728F4D2DFE800F01A
:100320001B4B5A0743539F0000BF00BF00BF7348D9
:10033000D0F89410204688472046FFF7BDFF91E093
:100340006F4801780078401C6D4D28706B48026E34
:100350006CA0904786E000216748D0F8B400017097
:1003600001216548D0F8B800017000216248D0F83A
:10037000BC00017001216048D0F8C000017000216C
:100380005D48D0F8C400017001215B48D0F8C80076
:10039000017067E05948C16D4FF0FF30884705464E
:1003A00006F038FC5EE05548C1690320884759E0F3
:1003B000FFF758FF56E0FFF766FF53E04F49D1F8CB
:1003C000900080474EE0FFF739FF4BE001204A499B
:1003D000886147E049484F4B4FF47A720121C56C60
:1003E0000020A84745484B4B4FF4FA620121C56CE9
:1003F0000846A8474148474B40F6B8320121C56C32
:100400000220A8473D48434B4FF47A620121C56C56
:100410000320A84739483F4B41F288320121C56C7F
:100420000420A84735483B4B41F270720121C56C4E
:100430000520A8473148374B41F658320121C56C99
:100440000620A8472D48334B41F658320121C56C90
:100450000720A84706E000202749886100BFFFF772
:1004600020FF00BF00BF70BD704710B52348224970
:100470000C3142680020904720481F4910314268E3
:10048000012090471D481C491431426804209047C0
:100490001A482149426E0220904710BDFFF7E5FF40
:1004A0001548CC301449C1F81C011448C16FC8204C
:1004B00088471148E0301049C1F81C010F48816A93
:1004C0000120884716E00D49886F8047044624F0D4
:1004D0007F45200E012802D0022809D103E0E8B2AE
:1004E000FFF70BFF05E00D4909686818804700E039
:1004F00000BF00BFE7E70000C80100202000002087
:10050000000000204C6F672054657374203D202547
:10051000640A00003D020008690400081000002081
:1005200010B5FE48D0F88C10FD488847FD48FC49BE
:10053000CC39C1F8CC0010BD10B5F848D0F88C10FB
:10054000F74814308847F849F548CC38C0F8E0102F
:10055000F248F649D0F88820F14814309047F04826
:10056000CC38F249086103208870F148C861F1482D
:10057000086242F2107088624FF47A7048620D206F
:10058000087000204870E548EB49D0F88820E4481E
:1005900014309047E248C838E74908610320887062
:1005A0006420C861002008620A2088620120486235
:1005B0000620087001204870D848E049D0F884200F
:1005C000D74814309047D648C438DC490861032026
:1005D00088700E20087001204870D048D849D0F8A3
:1005E0008420CF4814309047CD48C038D4490861A2
:1005F000032088700720087002204870C748D1493E
:10060000D0F88420C64814309047C548BC38CD493E
:100610000861032088700F20087002204870BF48CE
:10062000C949D0F88420BE4814309047BC48B83837
:10063000C5490861032088700620087003204870AF
:10064000B648C249D0F88420B54814309047B44821
:10065000B438BE490861092088700120C870BC48C0
:1006600048610F2008700320487010BD10B5AB48DA
:10067000D0F88C10AA4828308847B649A848CC380A
:10068000C0F8F410A548B449D0F88820A448283010
:100690009047A3489438B0490861032088704FF40C
:1006A0007A70C861002008620520886201204862D3
:1006B0000D200870002048709848A849D0F888207C
:1006C00097482830904796489038A44908610320FD
:1006D00088706420C861002008620A2088620120B6
:1006E00048620E200870012048708C489C49D0F860
:1006F00084208B4828309047894898389849086169
:1007000005208870022088800D2008700220487023
:1007100082489449D0F88420814828309047804806
:100720008438904908610320887002208880052061
:1007300008700120487079488B49D0F884207848A7
:1007400028309047764880388749086103208870B0
:100750000220888005200870022048706F48834975
:10076000D0F884206E48283090476D487C387F4907
:10077000086103208870022088800D200870032003
:10078000487066487A49D0F88420654828309047F8
:100790006348783876490861092088700120C8705C
:1007A0007448486103200870487010BD10B55B485C
:1007B000D0F88C105A483C3088476F495848CC389C
:1007C000C0F8081155486D49D0F8842054483C3091
:1007D00090475348CC38D0F89C0068490861002005
:1007E000887002200870002048704C486449D0F896
:1007F00084204B483C3090474948CC38D0F8A00082
:100800005F4908610020887003200870002048704C
:1008100042485C49D0F8842041483C3090474048E9
:10082000CC38D0F8A4005749086100208870042013
:1008300008700020487039485349D0F8842038485F
:100840003C3090473648CC38D0F8A8004E49086173
:100850000020887005200870002048702F484B4900
:10086000D0F888202E483C3090472D482038474902
:100870000861002088700A2008700020487001205C
:10088000C86100200862012088624862234840490C
:10089000D0F8882022483C30904721481F383C49F6
:1008A0000861002088700B2008700020487001202B
:1008B000C8610020086201208862486217483549F3
:1008C000D0F8882016483C30904715481E383149EA
:1008D0000861002088700C200870002048700120FA
:1008E000C861002008620120886248620B482A49DA
:1008F000D0F888200A483C30904709481D382649DE
:100900000861002088700D200870002048700120C8
:10091000C86100200862012088623FE020000020BA
:10092000940200202C780008A4770008E802002038
:1009300020F40E00C027090014030020400300200B
:100940005C0300207803002094030020B003002003
:100950003C750008E8770008CC030020F80300206D
:1009600024040020400400205C04002078040020BF
:10097000940400204475000860770008B00400204B
:10098000CC040020E80400200405002020050020FD
:100990004C05002078050020A405002048624C4842
:1009A0004C49D0F888204C4890474B485838494922
:1009B0000861002088700E20087000204870012017
:1009C000C8610020086201208862486240484349AB
:1009D000D0F88820404890473F4857383F49086141
:1009E000002088700F200870002048700120C86126
:1009F0000020086201208862486235483849D0F8F2
:100A00008420354890473748D0F888003449086139
:100A10000220887006200870012048702C48324956
:100A2000D0F884202C4890472E48D0F88C002E49CE
:100A30000861022088700F20087001204870244847
:100A40002A49D0F88420244890472648D0F89000BE
:100A5000264908610220887006200870022048702C
:100A60001B482349D0F884201B4890471D48D0F8E4
:100A700094001F490861022088700F20087002202E
:100A8000487010BD10B5FFF74BFDFFF755FDFFF7A0
:100A9000EDFDFFF78BFE10BDFFF7F4FF1148806DF1
:100AA00064301449086011E00E48806D11490968EE
:100AB00088420BD30B48806D64300E490860094AA8
:100AC000D2F81C01024AD2F880108847ECE70000F7
:100AD00020000020D0050020D0020020FC050020CE
:100AE00028060020C80100204406002060060020DF
:100AF0007C06002004000020704708B5009000BF6D
:100B000000994A1E00920029FAD108BD10B504468A
:100B100002E00820FFF7F1FF2000A4F10104F8D162
:100B200010BD10B5044603E04FF4FA50FFF7E5FF9F
:100B30002000A4F10104F7D110BD10B50446102C1B
:100B400002DB14A006F066F8102C02DA1648005DED
:100B500010BD3020FCE770B505460C4644EA05643C
:100B60001248416F2046884770BD10B572B61048D4
:100B700000F07F400F4908600F4800F07F400E49A9
:100B8000086000F00CFE00F05CF901F019F900F0CB
:100B90005EFE10BD0A4153534552543A20686578B1
:100BA000203C2031360A00004C750008200000204F
:100BB0006B0B0008100000201400002002464FF0CC
:100BC00080700860081F014602606FF00103081F73
:100BD000014603604FF01233081F014603604FF0D7
:100BE0000333081F014603604FF00233081F01461C
:100BF00003605B10081F014603600023081F0146C5
:100C000003604FF01133081F014603604FF01033AB
:100C1000081F014603604FF00933081F01460360B7
:100C20004FF00833081F014603604FF00733081FD9
:100C3000014603604FF00633081F014603604FF082
:100C40000533081F014603604FF00433081F0146B7
:100C5000036008467047016000224260826070476E
:100C600070B5044687492046FFF7A8FF0546294688
:100C70008548FFF7F0FF70BD70B5044683492046F4
:100C8000FFF79CFF054629468148FFF7E4FF70BD4A
:100C900080490968884205D07F4908604FF080513B
:100CA0007E4A1160704710B57748806850B1764829
:100CB0008068401E744988600846806810B90846FC
:100CC000FFF7E6FF10BD76487649426E0120904757
:100CD0006D4870490860084600686F4908604FF029
:100CE00080506E49086062B600BFFEE710B504464A
:100CF00072B66D480088401C6B49088065480068E2
:100D00006349884214D16048406888B900205E4930
:100D100088600846446064480088401E80B262498A
:100D2000088000B962B65848FFF7B2FF012010BD35
:100D30005E48008A282809DB5B480088401E80B294
:100D40005949088000B962B60020F0E75748008A88
:100D5000401C56490882084680680460084680683E
:100D6000001D8860084680684968884203D94F485A
:100D700000684E4988604C480088401E80B24A494D
:100D8000088000B962B60120D1E710B572B64648B6
:100D90000088401C444908803B48406800B137E067
:100DA0004248008A00281EDD4048C06804683F4869
:100DB000C068001D3D49C8600846008A401E088280
:100DC0000846C0684968884203D9384800683749EE
:100DD000C86035480088401E80B23349088000B999
:100DE00062B6204610BD0020274988602E48008842
:100DF000401E80B22C49088000B962B62448FFF733
:100E000047FF72B628480088401C2749088000BF69
:100E10001D48446800201C49486023480088401E43
:100E200080B22149088000B962B62046DAE710B5E1
:100E30000446002C04DD144884601548FFF728FFA1
:100E400010BD10B51A48194908609C304860084622
:100E50000068886008460068C86000200882094869
:100E60001C38FFF767F913480D49886612490C488A
:100E7000C1661249016712498167124941671249E7
:100E8000C16710BD8C0D0020D0130020CC130020B2
:100E9000DC130020C0000020C400002004ED00E0AE
:100EA00020000020A70C00080C000020980600205D
:100EB000AC060020610C0008790C0008C70C000883
:100EC0008B0D0008ED0C00082F0E00082DE9F04FE7
:100ED00095B0044625786778A0780A282CD2DFE8F8
:100EE00000F0052C547BB1E7FEFDFCFB2069007887
:100EF0001390139805F030FC0790A16805F0D3F922
:100F00000890E16805F027FA099005F048FC83464F
:100F10005A46F9A10AA805F08DFEC6B207E00AA854
:100F2000805DF64901EB07114855681EC5B23000D7
:100F3000A6F10101CEB2F2D1C9E12069B0F90000F9
:100F40001290129805F0FFFB0790A16805F0ABF92D
:100F50000890E16805F0FFF9099005F020FC834650
:100F60005A46E5A10AA805F065FEC6B207E00AA840
:100F7000805DE24901EB07114855681EC5B230009B
:100F8000A6F10101CEB2F2D1A1E12069B0F8009042
:100F9000484605F0E1FB0790A16805F084F9089048
:100FA000E16805F0D8F9099005F0F9FB83465A4647
:100FB000D1A10AA805F03EFEC6B207E00AA8805DEE
:100FC000CE4901EB07114855681EC5B23000A6F1A5
:100FD0000101CEB2F2D17AE12069D0F800B0E06828
:100FE00005F042FCCDE90601A06805F03DFCCDE925
:100FF0000201584605F0B5FBCDE90001DDE9022309
:1010000005F019FACDE90401DDE9062305F0BAFA85
:10101000CDE9080105F0F0FB83465A46B6A10AA8BF
:1010200005F008FEC6B207E00AA8805DB34901EBEF
:1010300007114855681EC5B23000A6F10101CEB2B5
:10104000F2D144E12069D0F80080E06805F00CFCA2
:10105000CDE90601A06805F007FCCDE90201404694
:1010600005F090FBCDE90001DDE9022305F0E3F98D
:10107000CDE90401DDE9062305F084FACDE9080194
:1010800005F0D9FB804642469DA10AA805F0D2FD95
:10109000C6B207E00AA8805D984901EB07114855E0
:1010A000681EC5B23000A6F10101CEB2F2D10EE148
:1010B000206900681190A168119805F0F4F8099072
:1010C000E16805F048F911902679D6B18DA103C9E0
:1010D000CDE90F01304603E0D8E0B9E06AE029E04D
:1010E000FFF72BFD8DF83E00119805F0BDFB024681
:1010F0000B46CDE908010FA90AA805F09BFDC6B271
:1011000009E0119805F04BFB02467BA109900AA863
:1011100005F090FDC6B207E00AA8805D774901EBB3
:1011200007114855681EC5B23000A6F10101CEB2C4
:10113000F2D1CCE02069B0F80090484605F00CFBF5
:101140000790A16805F0AFF80890E16805F003F991
:10115000099005F03DFB1FFA80F926799EB10CE05D
:1011600009F00F00FFF7E9FC644901EB071148554E
:101170004FEA29190DB1681EC5B23000A6F1010170
:10118000CEB2EDD115E030205C4901EB0711485596
:101190000CE009F00F00FFF7D0FC584901EB0711F4
:1011A00048554FEA29190DB1681EC5B2B9F1000FB3
:1011B000EFD18CE02069D0F80080E06805F054FBA6
:1011C000CDE90601A06805F04FFBCDE902014046DC
:1011D00005F0D8FACDE90001DDE9022305F02BF98D
:1011E000CDE90401DDE9062305F0CCF9CDE90801DC
:1011F00005F021FB804626799EB10CE008F00F0037
:10120000FFF79BFC3D4901EB071148554FEA1818C1
:101210000DB1681EC5B23000A6F10101CEB2EDD10C
:1012200015E03020354901EB071148550CE008F076
:101230000F00FFF782FC314901EB071148554FEAD7
:1012400018180DB1681EC5B2B8F1000FEFD13EE01D
:101250002069D0F800A0504605F01EF8C6B2E0782C
:10126000012802D1681C801BC5B209E01AF8010BE5
:10127000224901EB071148550F2D01DA681CC5B250
:101280003000A6F10101CEB2F0D120E0206990F843
:101290000080606950F828A0504604F0FDFFC6B2F7
:1012A000E078012802D1681C801BC5B209E01AF859
:1012B000010B124901EB071148550F2D01DA681C8B
:1012C000C5B23000A6F10101CEB2F0D100BF00BF1F
:1012D00015B0BDE8F08F10B50C48006804682CB953
:1012E00020224021054804F0C5FF04E040222146A9
:1012F000024804F0ADFF10BD256400002814002052
:1013000025750000252E6E6600000000C800002034
:101310002DE9F041FE48006847680FB9BDE8F0814B
:1013200097F8008000241DE0002517E0781C465D3A
:10133000052E02DBF7A005F06DFCC4F10400B042FD
:1013400005DCFA4800EB041000F8058004E02020DA
:10135000F64901EB04114855681CC5B2102DE5DBB8
:10136000601CC4B2042CDFDB00BFD7E710B5E8482F
:101370000068846803E02046FFF7A8FDA469002CFC
:10138000F9D110BD10B5E2480068C46819E0E04822
:1013900000680069A0420FD1E5480078401CC0B247
:1013A000E3490870082801D100200870E04800785F
:1013B000042801DAA46904E02046FFF787FDA46948
:1013C00000BF002CE3D110BD70B5DA4C00250DE054
:1013D000207848B1A178D54B03EB01116378C81888
:1013E000E278211D04F034FF14346D1C082DEFDB6E
:1013F00070BD70B5002423E00026002514E0CE481F
:1014000000EB0410405DC94901EB0411495D8842BD
:1014100008D0C64800EB0410405DC74901EB041139
:1014200048550126681CC5B2102DE8DB36B1C2480C
:1014300000EB0411C148026B20469047601CC4B207
:10144000042CD9DB70BD10B50446B1480460FFF729
:1014500042FFFFF75DFFFFF789FFFFF793FFFFF7FD
:10146000B3FFFFF7C6FF10BD00210160416081603E
:10147000C1600161704700220A618A808A604FF072
:101480007E52CA6000224A610122CA7082688A6163
:101490008160704700230B61CB610B624B628B62F2
:1014A0008B808B604FF07E53CB6000234B61012318
:1014B000CB7000238B61C3680BB9C1607047C268F1
:1014C00000E092699369002BFBD1916100BFF5E7C1
:1014D0000FB4F8B504460D4616460AA8009004EB72
:1014E0008401944A02EB8101081D009A099905F0D4
:1014F000B5FB07460020009017B9F8BC5DF814FB57
:10150000082C00DBF9E704EB84018A4A02EB810135
:101510004D7004EB840102EB81018E7004EB8401B9
:1015200002EB8101CF70012004EB840102F821005D
:1015300000BFE2E7002100EB80027E4B03F822109F
:10154000704773480068006930B971480068C06826
:101550006F490968086170476D48006800698069D3
:101560006B490968086100BFF5E72DE9F14F8AB0C2
:1015700067480068046914B90BB0BDE8F08F2769AB
:1015800094F80280B8F10A0F7CD2DFE808F0480531
:10159000561566AC57677B472069B0F90060A08B91
:1015A00000B20990208C00B20890A08C00B2079085
:1015B000208D00B206900AE020690668E069099073
:1015C000206A0890606A0790A06A069000BF0A9897
:1015D00030B104280AD0302805D034280CD108E0D6
:1015E0000798064408E00698064405E00798361A6E
:1015F00002E00698361A00BF00BF0998864201DD56
:10160000099E03E00898864200DA089EB8F1030FAD
:1016100001D13E6001E030B23880BDE000BF54F837
:10162000100F057894F80CB0207C059094F8149075
:10163000207E103C00F0FF0A1BE000BF20690588F7
:10164000A08B1FFA80FB208C80B20590A08C1FFA23
:1016500080F9208D1FFA80FA0BE000BF2069056831
:10166000D4F81CB0206A0590D4F82490D4F828A0AF
:1016700000BF0A9838B1042809D0302805D0342892
:1016800013D10BE087E04D440FE055440DE04D458C
:1016900001D2002501E0A5EB090506E0554501D280
:1016A000002501E0A5EB0A0500BF00BF5D4501D99B
:1016B0005D4603E00598854200D2059DB8F10A0F0A
:1016C0000FD2DFE808F0060E080E0B0E090C0E050F
:1016D00000BF3D7005E000BF3D8002E000BF3D60FF
:1016E00000BF00BF58E0206900680490E0690390E3
:1016F000206A0290606A0190A06A00900A9830B156
:10170000042829D0302821D0342831D12AE017E00C
:10171000C80000200A4153534552543A20636F6C6D
:10172000756D6E203C20350A000000002814002052
:10173000CC00002068140020E813002020000020C6
:101740000199049804F0AFFD049011E00099049809
:1017500004F0A9FD04900BE00199049804F0F5FD54
:10176000049005E00099049804F0EFFD049000BF98
:1017700000BFDDE9031005F0E1F802D20398049000
:1017800006E00299049805F0CFF801D2029804907F
:101790000498386000E000BF00BF00BFECE6002006
:1017A00006E02021114A1154114A1154411CC8B2BB
:1017B0004028F6DB0F49104AC2F880100F4A0E4944
:1017C000C1F884200E4AC1F888200E4AC1F88C2046
:1017D0000D4AC1F890200D4AC1F894200C4AC1F876
:1017E00098200C4AC1F89C20704700002814002063
:1017F000E813002047140008200000207714000898
:101800009514000869140008431500086B150008BA
:10181000D11400083515000878B502460B46FF24A0
:10182000FF2509E012F8010B80EA04010A48405C38
:1018300080EA05040948455C1800A3F10103F1D1D1
:101840008DF801408DF80050BDF8000078BD10B54E
:1018500000F08CFA10BD00005C7500085C76000892
:10186000F8B506460C4621463046FFF7D5FF0090F6
:1018700035199DF8010005F8010B9DF8000028704E
:10188000A41CFE482146826C30469047F8BD2DE9E5
:10189000F8430746FA480078FA490870F848407853
:1018A0004870F74800798DF80100F54840798DF8C7
:1018B0000000BDF8000000F0070030B1BDF80000E6
:1018C000012101EBE000C5B203E0BDF80000C0F368
:1018D000C705EC488570C61C002402E00020305586
:1018E000641CAC42FADB002414E03819E64951F8D4
:1018F0002000E6490968085C01280AD106EBE400EB
:10190000007804F0070201219140084306EBE4014E
:101910000870641CBDF800008442E6DBD94880787A
:10192000C01C00F0FF084146D648FFF799FFBDE80C
:10193000F8832DE9F8430746D1480078D14908706B
:10194000CF4840784870CE4800798DF80100CC48E7
:1019500040798DF80000BDF8000000F0070028B1C4
:10196000BDF80000012101EBE00502E0BDF8000038
:10197000C510C4498D70CE1C002402E000203055F3
:10198000641CAC42FADB002414E03819C04951F859
:101990002000BE490968085C01280AD106EBE40072
:1019A000007804F0070201219140084306EBE401AE
:1019B0000870641CBDF800008442E6DBB148807802
:1019C00000F103084146AF48FFF74AFFBDE8F8833E
:1019D0002DE9FC410546AA480078AA490870A848A4
:1019E00040784870A64800798DF80500A4484079F1
:1019F0008DF80400BDF804004006000E8870CC1C71
:101A0000002612E02846691C8DB2A24951F8200038
:101A10009E490968085A00909DF8010004F8010BDE
:101A20009DF8000004F8010B761CBDF80400864206
:101A3000E8DB94488078C71C39469248FFF710FFCE
:101A4000BDE8FC812DE9FC4105468D4800788D49B3
:101A500008708B4840784870894800798DF80500F7
:101A6000874840798DF80400BDF804004006000E58
:101A70008870CC1C002612E02846691C8DB286496D
:101A800051F8200081490968085A00909DF801002A
:101A900004F8010B9DF8000004F8010B761CBDF85A
:101AA00004008642E8DB77488078C71C39467548D1
:101AB000FFF7D6FEBDE8FC8138B5044670480079D2
:101AC0008DF801006E4840798DF80000BDF80000E7
:101AD000B0F57F4F07D101206B4951F824106B4AB4
:101AE0001268505406E00020674951F82410674AF4
:101AF000126850546148826C684801886048904779
:101B000038BDF8B505465E4800798DF801005C489F
:101B100040798DF800005A4EF61D00240FE006EBC8
:101B2000E400007804F00701084100F001002919E1
:101B3000554A52F82110554A12685054641CBDF899
:101B400000008442EBDB4F484D490A6802608A88F6
:101B50008280897981710621FFF782FEF8BD38B550
:101B60000446474800798DF80100454840798DF8D2
:101B70000000BDF80000484951F82410434A12689B
:101B800050523E48826C454801883D48904738BDD8
:101B90007CB506463A4800798DF80500384840790A
:101BA0008DF80400364CE41D002513E014F8010BF9
:101BB0008DF8010014F8010B8DF80000BDF800202D
:101BC0003046711C8EB2344951F820002F49096803
:101BD0000A526D1CBDF804008542E7DB29482849FC
:101BE0000A680260898881800621FFF739FE7CBD82
:101BF00000202A4908802A4908802A49087070472D
:101C000026490988FF2902DD0021244A1180234941
:101C10000A880988491C214B1980194988540021D8
:101C20001F4A118001211F4A117070471CB51448CA
:101C30000078012802D0FFF7DBFF1CBD17480088A1
:101C4000042802DCFFF7D4FFF7E714480088811E60
:101C50000B48FFF7E1FD044610480088801E084944
:101C6000085C8DF801000D480088401E085C8DF866
:101C70000000BDF80000844219D015E020000020CB
:101C80000816002008150020D000002018000020B1
:101C9000E8000020F8000020080100201A010020C0
:101CA0001C01002018010020FFF7A2FFC5E73648FD
:101CB00080788DF805003448C0788DF804003248EB
:101CC0004078052824D008DC01280DD0022810D047
:101CD000032818D004282FD110E006281DD00F2883
:101CE00020D0102828D122E0BDF80400FFF7CFFD56
:101CF00023E0BDF80400FFF71CFE1EE0BDF8040061
:101D0000FFF766FE19E0BDF80400FFF79BFE14E044
:101D1000BDF80400FFF7D0FE0FE0BDF80400FFF7A8
:101D20001EFF0AE0BDF80400FFF7EBFE05E0BDF87A
:101D30000400FFF72DFF00E000BF00BFFFF758FFD2
:101D400000BF7AE710B51148007801280DD110487E
:101D50000088401C0E49088008460088022804DDDF
:101D600000200A490870FFF761FF10BD10B5FFF7AA
:101D70003FFF08480849426E002090470548416CE3
:101D80000648884710BD00000816002018010020F2
:101D90001C01002020000020451D0008011C000837
:101DA00010B5002807DA0A07140E184A00F00F03CE
:101DB0001B1FD45403E00A07130E154A135410BD19
:101DC00010B501F0C8FA01F05FFB00F0B6F800F0C2
:101DD00092F900F064FB00F0D2FC00F0C9FD00F0C5
:101DE000C7FE01F085F801F0DAFB01F0A8F94FF425
:101DF000A06001F0FBFE0E214FF0FF30FFF7D0FF97
:101E00000F216FF00100FFF7CBFF10BD18ED00E0D0
:101E100000E400E0002004E09449954A42F82010D4
:101E2000401C0528F8DB7047914A42F820107047A3
:101E3000904991480068C0F88810881C8E4909684C
:101E4000C1F88C00801C8C490968C1F89000801C86
:101E500089490968C1F8940070472DE9F04F89B0AD
:101E600000244DE04FF00009CA4609E00AEB8A0061
:101E7000824901EB400030F8140081440AF1010A64
:101E8000BAF1080FF2DB4FEAD909042C08DA7949D4
:101E900021F81490764951F82410A1F800902EE012
:101EA000484604F059FC83464FF08B41584604F0F5
:101EB00084FA019004F0D8FC4FF06632704BCDE903
:101EC000020104F05FFB07466E4A6F4B04F057FBBC
:101ED0006E4A6F4BCDE9040104F0C6FB00226D4B46
:101EE000CDE9060104F0A7FA054604F001FD83469A
:101EF000584604F06DFC5E4951F824100880641CBB
:101F0000052CAFDB5B4800885B490968A1F88000BD
:101F10005848418858480068A0F882105548818880
:101F200055480068A0F884105248C188524800689B
:101F3000A0F8861009B0BDE8F08F00B591B001217E
:101F40004FF4047002F0DCF90F20ADF840000020DF
:101F50008DF8430010A9504801F016FF4FF40040DF
:101F600002F032F94D4802F00DFD00200B900120E7
:101F70008DF830008DF831004FF460200D90002076
:101F80000E9005208DF83C000BA9444802F021FD7D
:101F900001231A460A21414802F0B3FD012302221F
:101FA0000B213E4802F0ADFD012303220C213B48EA
:101FB00002F0A7FD012304220D21384802F0A1FD03
:101FC000032305221021354802F09BFD012002F079
:101FD000BDFE0121314802F033FD01212F4802F0FE
:101FE00024FD2E4802F043FD00BF2C4802F044FDC2
:101FF0000028FAD1294802F049FD00BF274802F025
:102000004AFD0028FAD10121084602F06CF9244863
:1020100002F0E0FE21484C3000901848019000206A
:10202000029028200390002004908020059040001A
:102030000690800007902020089000020990002060
:102040000A906946164802F067FF0121134802F022
:102050002CFD0121124802F08AFFFFF7DBFEFFF79B
:10206000E7FE10481049486011B000BD260100206D
:10207000581700201E01002018000020081700201B
:1020800066660A40E17A14AE47E1F63F22FDF67536
:10209000E09C713F000039400010014000240140E5
:1020A00008000240291E0008200000202548006882
:1020B000D0F89C0000782349096881F898002148ED
:1020C0000068D0F8A00001781E48006880F89910D8
:1020D0001C480068D0F8A40001781A48006880F80D
:1020E0009A1018480068D0F8A800017815480068D0
:1020F00080F89B10704708B5134912480068C0F873
:102100009C10091D0F480068C0F8A010091D0D485B
:102110000068C0F8A410091D0A480068C0F8A8109B
:102120000121042002F0ECF8F020ADF80000482076
:102130008DF8030003208DF802006946034801F082
:1021400023FE08BD180000201001214200080140B4
:1021500038B504460121082002F0D2F874B94FF2D4
:102160000300ADF8000010208DF8030003208DF867
:1021700002006946E14801F007FE16E0012140F641
:10218000010002F0BDF80121022002F0C6F84EF273
:102190000300ADF8000018208DF8030003208DF82F
:1021A00002006946D54801F0EFFD38BDD44800680B
:1021B00090F8AC10D2480068D0F8B4000170D04854
:1021C000006890F8AD10CE480068D0F8B8000170F3
:1021D000CB48006890F8AE10C9480068D0F8BC0041
:1021E0000170C748006890F8AF10C5480068D0F883
:1021F000C0000170C248006890F8B010C048006884
:10220000D0F8C4000170BE48006890F8B110BC4816
:102210000068D0F8C8000170704710B50446062C5D
:1022200023D2DFE804F003090F10161C0122082155
:10223000B44803F02EFD19E001220C21B14803F04F
:1022400028FD13E012E004220021AF4803F030FD26
:102250000CE004221146AC4803F02AFD06E00422FB
:102260000821A94803F024FD00E000BF00BF10BD15
:1022700010B50446062C23D2DFE804F003090F1042
:10228000161C002208219F4803F003FD19E00022DC
:102290000C219C4803F0FDFC13E012E000221146E3
:1022A000994803F005FD0CE000220421964803F054
:1022B000FFFC06E000220821934803F0F9FC00E04F
:1022C00000BF00BF10BD70B505460C46062D1ED2DE
:1022D000DFE805F003080D0E1318A1B2894803F0DA
:1022E0006FFD15E0A1B2874803F06CFD10E00FE030
:1022F000A1B2854803F060FD0AE0A1B2824803F074
:102300005DFD05E0A1B2804803F05AFD00E000BF8A
:1023100000BF70BDF0B587B004460F4615461E4697
:10232000781E80B2ADF81000681E80B2ADF81400BF
:102330000020ADF81600ADF812008DF818006020EE
:10234000ADF80000B0B2ADF80600062C7DD2DFE893
:1023500004F0031E393A5C8004A96A4802F038FF91
:102360000120ADF802000020ADF80800694665487C
:1023700002F0FAFF0821634803F0CCFB0121614819
:1023800003F082FB01215F4803F07EFA84E004A998
:102390005C4802F01DFF0120ADF802000020ADF8FE
:1023A00008006946574803F02AF80821554803F009
:1023B000BAFB0121534803F067FB0121514803F0A8
:1023C00063FA69E068E004A94F4802F001FF0020C9
:1023D000ADF802000420ADF804000020ADF80A00BA
:1023E0006946494802F031FF0821474803F07CFB69
:1023F0000121454803F048FB0121434803F044FA1A
:102400000121414803F04CFA46E004A93E4802F09D
:10241000DFFE0020ADF802000420ADF8040000202B
:10242000ADF80A006946384802F051FF08213648E5
:1024300003F063FB0121344803F026FB01213248FD
:1024400003F022FA0121304800E024E003F028FAEA
:1024500022E004A92C4802F0BBFE0020ADF80200E7
:102460000420ADF804000020ADF80A0069462648B3
:1024700002F07AFF0821244803F04CFB0121224896
:1024800003F002FB0121204803F0FEF901211E4860
:1024900003F006FA00E000BF00BF07B0F0BD10B5C2
:1024A0001A4917480068C0F8B410091D144800689C
:1024B000C0F8B8101549303111480068C0F8BC1098
:1024C000091D0F480068C0F8C010091D0C480068BD
:1024D000C0F8C410091D0A480068C0F8C8100C49AB
:1024E0000C4841610C4981610C49C1610C49416250
:1024F0000C4901620020FFF72BFE10BD000C0140CB
:102500001800002000040040002C0140808121427E
:1025100051210008200000201B2200087122000821
:10252000C7220008152300080146F7291ED008DC41
:102530007F2913D0BF290FD0DF290BD0EF2917D166
:1025400006E0FB2910D0FD290CD0FE2910D107E0B0
:10255000002070470120FCE70220FAE70320F8E79B
:102560000420F6E70520F4E70620F2E70720F0E76D
:10257000FF20EEE70146F7291ED008DC7F2913D0A3
:10258000BF290FD0DF290BD0EF2917D106E0FB2997
:1025900010D0FD290CD0FE2910D107E03020704763
:1025A0003120FCE73220FAE73320F8E73420F6E761
:1025B0003520F4E73620F2E73720F0E7FF20EEE79A
:1025C00097490870704710B59548007800B910BD5C
:1025D00094480068401C93490860032801D10020FA
:1025E00008609048006820B1012833D0022830D11B
:1025F0005FE0FF208C4908708C48006820B90846CD
:10260000007800F07F0008708948006828B9864883
:10261000007800F0BF00844908708548001F0068FA
:1026200028B98148007800F0DF007F4908708048B1
:102630000838006828B97C48007800F0EF007A4933
:102640000870002079498431086001207949C1F877
:10265000940191E07548006828B97348007800F04B
:10266000F700714908707248006828B96E48007810
:1026700000F0FB006C4908706D48001F006828B925
:102680006948007800F0FD0067490870684808381C
:10269000006828B96448007800F0FE0062490870BC
:1026A000002062498831086001206249C1F8900128
:1026B00062E05D480078FF281ED05F48006800286F
:1026C0001ADB594800785D490978884207D0564896
:1026D00000785A4908700020574908604BE0564876
:1026E0000068401C5449086042F21071884242DD83
:1026F0000846514908603EE04F480068002804DD64
:102700004D480068401E4C4908604B48006800284E
:1027100004DA49480068401C474908604648006898
:10272000401C10B9002046490860434800689628BC
:1027300009DB42480078FFF71DFF044621460120CF
:10274000FEF709FA0DE03C4800681E2813DB3B4801
:102750000078FFF7E9FE044621460120FEF7FBF969
:1027600000BF6FF0090034490860FF20334908704A
:1027700001203349086000BF00BF00BF27E708B54C
:102780000121192001F0BCFD01212E4801F0CDFBF3
:10279000002026498831086001202649C1F89001AF
:1027A0003020ADF8000010208DF8030003208DF8D4
:1027B00002006946244801F0E7FA0820ADF800005D
:1027C00048208DF8030002208DF8020069461E485B
:1027D00001F0DAFA4FF4E050ADF8000002208DF875
:1027E000020048208DF803006946184801F0CCFA31
:1027F0000020134908600121042001F081FD02201E
:10280000ADF8000010208DF8030002208DF80200C2
:1028100069460F4801F0B8FA0E490F48816208BDB9
:102820003001002034010020310100200C812142C0
:1028300030012242008021422C010020280100208A
:102840008401214200023000000C014000100140D0
:1028500000080140C12500082000002070B5044692
:1028600004F0F0004FF4780141EA002004F00F0179
:1028700040EA011600205C49086001205B49C1F86C
:10288000A00117251FE026FA05F000F0010020B195
:10289000012055490839086003E0002052490839F1
:1028A00008600A20FEF732F901204F4908600A202B
:1028B000FEF72CF900204D49C1F8A4010A20FEF7CB
:1028C00025F9681E05B2002DDDDA00204649091FF2
:1028D000086070BD70B5044604F0F0004FF47A0152
:1028E00041EA002004F00F0140EA011600203E49B1
:1028F000086001203D49C1F8A00117251FE026FA14
:1029000005F000F0010020B10120374908390860C6
:1029100003E000203449083908600A20FEF7F6F881
:102920000120314908600A20FEF7F0F800202F4905
:10293000C1F8A4010A20FEF7E9F8681E05B2002DCF
:10294000DDDA00202849091F086070BD70B5054612
:102950000C462749485DFFF781FF002605E014F883
:10296000010BFFF7B7FF701CC6B2102EF7DB70BD6E
:1029700008B50121102001F0C3FC00201A490860AD
:102980001A49C1F8A0011849083908601749C1F867
:1029900098014FF47070ADF8000010208DF803001E
:1029A00002208DF802006946124801F0EDF964201A
:1029B000FEF7B7F801200C490C3908603020FFF70A
:1029C0004DFF0C20FFF74AFF0120FFF747FF0220D1
:1029D000FFF744FF8020FFF741FF0120FFF73EFF94
:1029E00005490648016308BDA401224200002242B5
:1029F0005C770008001001404D29000820000020ED
:102A00002A480078401CC0B22849087064284CD17C
:102A1000002008702648006890F85C003B2809DA1E
:102A20002348006890F85C00401C2149096881F83F
:102A30005C003AE000201E49096881F85C001C48EF
:102A4000006890F85D003B280ADA1948006890F8A1
:102A50005D00401CC1B21648006880F85D1024E09B
:102A600000211348006880F85D101148006890F854
:102A70005E0017280ADA0E48006890F85E00401CD5
:102A8000C1B20B48006880F85E100EE000210848D3
:102A9000006880F85E100648006890F85F00401CEF
:102AA000C1B20348006880F85F1070473801002009
:102AB0001800002070B500243048006800B970BDCF
:102AC0002E48056829E005F0010020B32C4850F895
:102AD0003400401E2A4941F83400E0B90120A040EA
:102AE0002649096881432548016026480068E0407E
:102AF00000F0010050B1224800EBC4004068224AB7
:102B00001268811A0220FEF726F804E01C4901EB46
:102B1000C401486880476D08641C002DD3D100BFF4
:102B2000CDE730B5164C44F8302004EBC0046360A8
:102B300039B101248440134D2D682C43114D2C6074
:102B400006E0012484400F4D2D68A5430D4C2560FF
:102B500001248440094D2D682C43084D2C6030BD64
:102B600001218140054A12688A4304490A6070477E
:102B700006490748C1640749016570473C010020C8
:102B80006C1700204001002010000020232B0008BB
:102B900020000020612B000810B501F034FC352026
:102BA00001F0CCFE10BD10B501F039FC10BD70B5C0
:102BB000ADF5027D002416E0D548006850F83400D9
:102BC000401C70B1D248006850F834004DF8240021
:102BD000CF48006800EBC40040685DF8241008602E
:102BE00000E002E0641C802CE6DB00BFC9494C8099
:102BF0008020888008464088022803DA08464088FA
:102C000008804EE00026002413E0651C0BE05DF810
:102C100024005DF82510884204D100204DF82400DE
:102C2000012604E06D1CBB484088A842EFDC00BFD1
:102C3000641CB8484088401EA042E6DC26B9B5486E
:102C40004088B44908802CE0FFF7A6FFB24801F0A5
:102C50001FFC002500241CE05DF8240000B917E0EB
:102C60005DF8240080905DF8240000688190A84AF7
:102C70008099126802EBC50001F0DAFCA44A819940
:102C8000126802EBC502101D01F0D2FC6D1C00BFE2
:102C9000641CA0484088A042DEDCFFF784FF9D4909
:102CA0000D809C4800889B49C8809CA003F0B2FF1F
:102CB000984881889AA003F0ADFF964841889EA06D
:102CC00003F0A8FF93480188A1A003F0A3FF914857
:102CD000C188A4A003F09EFF0DF5027D70BD70B504
:102CE000044625460CB9002070BD8A48C088894931
:102CF0008988884201D10020F6E7FFF74DFF85491A
:102D0000C988834A126802EBC100294601F090FC91
:102D1000804AD2887E4B29681B6803EBC202101DD3
:102D200001F086FCFFF73FFF7A48C088401C7949D4
:102D3000C8800120D8E770B54FF440608E494881C3
:102D40008E480860084600684860002008818B4D66
:102D5000002409E02878FF2804D18748456001460F
:102D60000C8104E06D1C641CB4F5406FF2DB00BF05
:102D700083A003F04FFF8048418982A003F04AFFFF
:102D80007D48018985A003F045FF7B48016889A043
:102D900003F040FF784841688BA003F03BFF78A028
:102DA00003F038FF70BD10B5FFF7F6FE002405E014
:102DB000724901EB842001F06BFB641C032CF7DBF0
:102DC000FFF7F1FE6D486C490860486000200881FB
:102DD00010BD10B5024669490878FF2801D17FA0CF
:102DE00010BD1AB96548644C2060F9E7501CC0B9A1
:102DF00061480368016800BF11F8014B002CFBDC3F
:102E0000087800B9491C0878FF2802D0424881425E
:102E100003D95A48584C206001E0574801601846D1
:102E2000DEE7002A1DDD0EE00878FF2801D16BA047
:102E3000D6E700BF08780028FCDC491C00BF0878F2
:102E40000028FCD0491C1000A2F10102ECD1087846
:102E5000FF2802D03048814201D960A0C0E708466F
:102E6000BEE760A0BCE70FB4F0B59BB001AE002593
:102E700003E0002026F8020B6D1C322DF9DB21A89F
:102E80001A9001A81A9A209903F0E8FE044600203F
:102E90001A901CB91BB0F0BC5DF814FB641C04F064
:102EA000010000B1641C344800892044B0F5406F33
:102EB00001DB0020EEE7671001AEFFF76DFE002595
:102EC0000BE031882C4A506801F0E5FB2A48406845
:102ED000801C29494860B61C6D1CBD42F1DBFFF720
:102EE00062FE254800892044234908810120D1E75A
:102EF00010B5FFF75CFE3F493F484165FFF71BFFF8
:102F00003E493D4881653E49C1653E49016610BD67
:102F1000440100204801002000FC00080A0A0A00C1
:102F20000AB2CECAFDD7DCB4E6B4A2BFD5BCE42059
:102F30003D202564000000000AB2CECAFDD2D1B403
:102F4000E6B4A2BFD5BCE420203D202564000000EB
:102F50000AB2CECAFDB4E6B4A2B8F6CAFD203D203E
:102F6000256400000AB2CECAFDD0B4C8EBB5E32098
:102F70003D20256400000000AC17002000F0000890
:102F80000A0A00000AC8D5D6BED7DCB4E6B4A2BF90
:102F9000D5BCE4203D202564000000000AC8D5D639
:102FA000BED2D1B4E6B4A2BFD5BCE420203D2025DA
:102FB000640000000AC8D5D6BEB6C1C8A1B5E320DA
:102FC0003D202578000000000AC8D5D6BED0B4C880
:102FD000EBB5E3203D202578000000004E756C6CB9
:102FE0000A000000417267756D656E744572726FFC
:102FF000720A0000DF2C000820000020A72D000826
:10300000D32D0008672E000810B502462AB3012A06
:1030100012D0022A32D1604800780A2801D100205B
:1030200010BD5D4803780078401C5B4C20705B4805
:1030300040F823100120F3E759480078042801D113
:103040000020EDE7564803780078401C544C20706F
:10305000544840F823100120E2E753480078022842
:1030600001D10020DCE7504803780078401C4E4C2A
:1030700020704E4840F823100120D1E70020CFE710
:1030800010B54B480078401CC0B24949087064280C
:1030900001D10020087045490868804743494868C5
:1030A0008047FEF7DAFEFFF701F8FFF77FF84048A8
:1030B00000780A2190FBF1F0C4B23D48007890FB03
:1030C000F1F201FB12000A2837D2DFE800F005090F
:1030D0000D11151A2225282B3249086880472CE04B
:1030E00030494868804728E02E498868804724E0B6
:1030F0002C49C868804720E0284951F824008047BF
:103100001BE02C480068806D401C2A4909688865CE
:1031100013E000F0BCF810E0FFF7CCFC0DE0FFF787
:1031200052FA0AE014B1012C04D102E0FFF768FC66
:1031300001E000E000BF00BF00BF00BF10BD30B520
:103140001D48006842F21072B0FBF2F1B1F1807FCD
:1031500000D31DE021F07F40401E4FF0E02250617F
:1031600050170F22002807DA13071D0E134B00F02B
:103170000F04241F1D5503E013071C0E104B1C5495
:1031800000BF00204FF0E02290610720106100BFD7
:103190000C490D48416630BD9001002068010020B7
:1031A00091010020580100209201002050010020D0
:1031B00093010020180000209801002018ED00E085
:1031C00000E400E009300008200000208E488F490C
:1031D000086000F2E73048600846006888600846EA
:1031E0000068C86000200882704701468748008A4E
:1031F000B0F57A7F01DB0020704784488068017059
:1032000082488068401C814A9060104680685268FD
:10321000904203D97D4800687C4A906072B67C4831
:103220000088401C7A4A10807848008A401C774AFF
:10323000108277480088401E80B2754A108000B91D
:1032400062B60120D8E770B504460D464DB103E0E3
:1032500014F8010BFFF7C9FF2800A5F10105F7D10C
:1032600007E003E014F8010BFFF7BFFF2078002808
:10327000F8D170BD70B504460D460A2C02D10D2060
:10328000FFF7B3FFE0B2FFF7B0FF204670BD5F4825
:10329000008A00B970475F48008800F0800000B9DC
:1032A000F8E75A48C06800785A49091D088057480D
:1032B000C068401C5549C8600846C06849688842D3
:1032C00003D9524800685149C86072B65048008816
:1032D000401C4F4908804D48008A401E4B490882D7
:1032E0004B480088401E80B24949088000B962B648
:1032F00000BFCFE710B540F22551464800F032FC40
:1033000038B1444800F0AEFBC4B221460120FDF7BD
:1033100022FC08213F4800F00FFC012802D13D4863
:1033200000F0A0FB10BD10B5012240F22551394834
:1033300000F033FB0121374800F023FB10BD10B52E
:10334000002240F22551334800F027FB002131488C
:1033500000F017FB10BD00B587B0012144F2050055
:1033600000F0CEFF4FF40070ADF8180003208DF888
:103370001A0018208DF81B0006A9274800F004FD4C
:103380004FF48060ADF8180048208DF81B0006A9A6
:10339000214800F0F9FC25208DF8040003208DF869
:1033A000050002208DF8060001208DF8070001A815
:1033B00000F021FC4FF4E13002900020ADF80C0049
:1033C000ADF80E00ADF81000ADF814000C20ADF80B
:1033D000120002A90F4800F048FA012240F22551DC
:1033E0000C4800F0DAFA01210A4800F0CAFAFFF7A7
:1033F000EDFE0A490A4841630A4981630A49C163EB
:103400000A49016407B000BDCC170020B81700209E
:103410000C0000200038014000080140273300085C
:10342000200000203F330008EB310008473200083D
:10343000704752490860704770B55148058805F0DB
:10344000200038B14E4800F00DFBC4B220464B4975
:103450000968884705F0080010B1494800F002FBF0
:1034600070BD70B505460C460021464801F07FFD51
:1034700044480C30056043488038C0F8844001213E
:10348000404801F074FD70BD00B591B001210520E8
:1034900000F036FF0121480400F03FFF0420ADF8A2
:1034A000400003208DF8420018208DF8430010A939
:1034B000354800F069FC0820ADF8400048208DF840
:1034C000430010A9304800F05FFC26208DF82C0046
:1034D00003208DF82D008DF82E0001208DF82F008F
:1034E0000BA800F088FB0121084600F0FCFE2548EF
:1034F00001F070FC2248001D009000200190102077
:103500000290082003900020049080200590002065
:103510000690079008904FF40050099000200A9000
:103520006946184801F0F8FC4FF4E1300C90002097
:10353000ADF83400ADF83600ADF83800ADF83C0019
:103540000C20ADF83A000CA90D4800F08EF90122CC
:1035500040F225510A4800F020FA01228021084853
:1035600000F040FA0121064800F00BFA074908482C
:1035700041640849816411B000BD0000940100203D
:10358000004400408000024000080140333400083D
:1035900020000020633400080D490860704708B51A
:1035A0000121042000F0ACFE00200949086002203F
:1035B000ADF8000010208DF8030002208DF8020005
:1035C0006946044800F0E0FB03490448C16208BDB5
:1035D00084012142000801409935000820000020A4
:1035E0000CB50020019000906C48006840F48030D9
:1035F0006A49086000BF6948006800F40030009024
:103600000198401C0190009818B90198B0F5A06F7E
:10361000F1D16248006800F4003010B10120009040
:1036200001E0002000900098012843D15C48006828
:1036300040F010005A4908600846006820F0030076
:1036400008600846006840F002000860534840687F
:10365000524948600846406848600846406840F45F
:10366000806048600846406820F47C104860084646
:10367000406840F4E81048600846006840F08070F8
:10368000086000BF4548006800F000700028F9D0CD
:103690004248406820F003004049486008464068BE
:1036A00040F00200486000BF3C48406800F00C0059
:1036B0000828F9D10CBD10B5FFF792FF10BD10B569
:1036C0003648006840F00100344908600846406808
:1036D000344908403149486008460068324908408A
:1036E0002E4908600846006820F4802008600846DB
:1036F000406820F4FE0048604FF41F008860FFF728
:10370000DAFF4FF000602949086010BD10B50021B4
:1037100000200022214B5B6803F00C0121B1042939
:1037200006D0082928D107E0214B224C236027E04E
:103730001F4B204C236023E0184B5B6803F4701090
:10374000164B5B6803F48032022303EB904022B9EE
:10375000194B4343174C23600DE0104B5B6803F497
:10376000003323B1144B4343124C236003E0104B4E
:103770004343104C236003E00D4B0E4C236000BF0D
:1037800000BF064B5B68C3F303130C4CE15C094BB1
:103790001B68CB40074C236010BD000000100240A6
:1037A000002002400000FFF8FFFFF6FE08ED00E0F9
:1037B00000127A009801002000093D009C010020C1
:1037C0000648804706480047FEE7FEE7FEE7FEE7BB
:1037D000FEE7FEE7FEE7FEE7FEE7FEE7BF3600088E
:1037E000ED00000810B50446FB48844209D10121D0
:1037F000880300F09FFD00214FF4804000F09AFD07
:1038000032E0F648844209D10121480400F09FFDCE
:1038100000214FF4003000F09AFD25E0F04884428A
:1038200009D10121880400F092FD00214FF480208D
:1038300000F08DFD18E0EB48844209D10121C80455
:1038400000F085FD00214FF4002000F080FD0BE02A
:10385000E548844208D10121080500F078FD0021E7
:103860004FF4801000F073FD10BD2DE9F04786B0D5
:1038700005460E460024A24600BFA1460027B08997
:1038800000B100BF2F462C8A4CF6FF700440F08830
:1038900004432C82AC894EF6F3100440B088318981
:1038A0000843718908430443AC81AC8A4FF6FF405A
:1038B0000440B0890443AC8201A800F0B4FCC648BF
:1038C000874202D1DDF810A001E0DDF80CA0A88944
:1038D00000F4004040B10AEBCA0000EB0A10316866
:1038E0004900B0FBF1F807E00AEBCA0000EB0A1050
:1038F00031688900B0FBF1F86420B8FBF0F00401F6
:103900002009642101FB1089A88900F4004040B11E
:10391000322000EBC900B0FBF1F000F007000443D7
:1039200008E0322000EB09106421B0FBF1F000F058
:103930000F0004432C8106B0BDE8F0874FF4165108
:10394000016000218180C18001810C214181002121
:103950008181704710B502460020108A4FF2FF03A4
:1039600018400B884C8823438C882343CC882343FE
:103970001843108210BD0021018041808180C180E8
:10398000704721B1828942F40052828104E0828929
:103990004DF6FF731A4082817047F0B5034600244C
:1039A00000260025002040F66A17B94200D100BF6A
:1039B0001846C1F3421401F01F06012707FA06F565
:1039C000012C01D10C3004E0022C01D1103000E0B8
:1039D00014301AB107682F43076002E00768AF434D
:1039E0000760F0BD1AB1838A0B43838202E0838AA9
:1039F0008B4383827047028A4FF6F0731A4002822B
:103A0000028A0A430282704782894FF2FF731A408A
:103A1000828182890A438281704721B1828942F082
:103A20000202828104E082894FF6FD731A4082818E
:103A30007047028A4FF6DF731A400282028A0A43F5
:103A40000282704721B1028A42F48042028204E07D
:103A5000028A4BF6FF731A4002827047C1F30802D4
:103A60008280704701468888C0F3080070478189CA
:103A700041F0010181817047028BD2B20283028B37
:103A800042EA012202837047028B02F47F420283E2
:103A9000028B0A430283704721B1828A42F02002DE
:103AA000828204E0828A4FF6DF731A408282704776
:103AB00021B1828A42F01002828204E0828A4FF6AB
:103AC000EF731A408282704721B1828A42F0080265
:103AD000828204E0828A4FF6F7731A40828270472E
:103AE00021B1828942F40042828103E08289C2F3DB
:103AF0000E028281704721B1828A42F40062828282
:103B000004E0828A4FF2FF731A4082827047828AF1
:103B10004FF6FB731A408282828A0A438282704780
:103B200021B1828A42F00202828204E0828A4FF648
:103B3000FD731A408282704702460020B1F5007F73
:103B400000D100BF13880B400BB1012000E0002022
:103B5000704701F40072B2F5007F00D100BFCA4384
:103B60000280704770B50246002400230025002023
:103B700040F66A16B14200D100BFC1F3421501F010
:103B80001F03012606FA03F3012D02D19689334063
:103B900006E0022D02D1168A334001E0968A3340B6
:103BA0000C12012606FA04F41688344013B10CB145
:103BB000012000E0002070BD10B50022002340F677
:103BC0006A14A14200D100BF0A1201249440A3B29A
:103BD000DC43048010BD0000003801400044004078
:103BE00000480040004C0040005000403149014373
:103BF000314A1160704770B5002100230F22C4784C
:103C000004B32D4C246804F4E064C4F5E064210A94
:103C1000C1F10403CA40447804FA03F184781440E3
:103C200021430901254C0678A155047804F01F05AD
:103C30000124AC4005786D11AD0005F1E025C5F813
:103C4000004109E0047804F01F050124AC401C4D3C
:103C50000678761145F8264070BD1A4A0A4002439C
:103C6000154B1B1F1A60704739B1134A121D126899
:103C70000243114B1B1D1A6006E00F4A121D126809
:103C800082430D4B1B1D1A607047042808D14FF06A
:103C9000E021096941F004014FF0E022116107E0E1
:103CA0004FF0E021096921F004014FF0E022116199
:103CB000704700000000FA050CED00E000E400E0B1
:103CC00080E100E080FFFF1F10B50446CC4884422D
:103CD00008D10121042000F02DFB0021042000F078
:103CE00029FB46E0C748844208D10121082000F0A2
:103CF00021FB0021082000F01DFB3AE0C24884426D
:103D000008D10121102000F015FB0021102000F047
:103D100011FB2EE0BD48844208D10121202000F093
:103D200009FB0021202000F005FB22E0B848844276
:103D300008D10121402000F0FDFA0021402000F0D0
:103D4000F9FA16E0B348844208D10121802000F03E
:103D5000F1FA0021802000F0EDFA0AE0AE4884423A
:103D600007D10121801500F0E5FA0021A01500F02F
:103D7000E1FA10BD10B50121084600F0DBFA002180
:103D8000012000F0D7FA10BD2DE9F04102460025D0
:103D90000026002000230024002791F803C00CF027
:103DA0000F0591F803C00CF0100CBCF1000F03D00C
:103DB00091F802C04CEA050591F800C0BCF1000F73
:103DC00031D0146800202BE04FF0010C0CFA00F306
:103DD000B1F800C00CEA03069E4220D183004FF0E8
:103DE0000F0C0CFA03F7BC4305FA03FC4CEA04047D
:103DF00091F803C0BCF1280F06D14FF0010C0CFA6A
:103E000000FCC2F814C00AE091F803C0BCF1480FEE
:103E100005D14FF0010C0CFA00FCC2F810C0401C98
:103E20000828D1D31460B1F800C0BCF1FF0F34DD15
:103E3000546800202EE000F1080C4FF0010808FA49
:103E40000CF3B1F800C00CEA03069E4221D18300B6
:103E50004FF00F0C0CFA03F7BC4305FA03FC4CEAD5
:103E6000040491F803C0BCF1280F05D100F1080C3F
:103E700008FA0CF8C2F8148091F803C0BCF1480F9E
:103E800007D100F1080C4FF0010808FA0CF8C2F84D
:103E90001080401C0828CED35460BDE8F0814FF656
:103EA000FF710180022181700421C17070470246B8
:103EB000002093680B400BB1012000E00020704708
:103EC0000146886880B2704702460020D3680B40E4
:103ED0000BB1012000E0002070470146C86880B2A5
:103EE000704701617047416170470AB1016100E0AC
:103EF00041617047C16070474FF480320A4382616C
:103F00008161826182698269704702460020434B69
:103F100018684FF68073184040EA021008433F4B80
:103F2000186070473E49C8617047F0B50A460023E3
:103F300000240021002500F00046B6F1004F02D118
:103F4000364EF16901E0354E7168C0F3034583B226
:103F500000F44016B6F5401F08D121F070612F4ED5
:103F6000766826F070662D4F7E6012E000F48016B1
:103F7000B6F5801F06D1032606FA05F4A14341F0E9
:103F8000706106E0460D360103FA06F6B14341F0D2
:103F9000706122B1460D360103FA06F6314300F096
:103FA0000046B6F1004F02D11C4EF16101E01B4EFC
:103FB0007160F0BD30B500228B071C0F0F2303FA90
:103FC00004F2164B08338C1053F824309343134CEF
:103FD00008348D1044F8253023468C1053F82430D3
:103FE0008C07240F00FA04F423430C4C08348D1082
:103FF00044F8253030BD0A49DC31086070470000C4
:1040000000080140000C0140001001400014014074
:1040100000180140001C0140002001400000014048
:1040200000002042DF48006840F00100DD490860E0
:1040300008464068DC490840DA494860084600689C
:10404000DA490840D74908600846006820F4802013
:1040500008600846406820F4FE0048604FF41F00E6
:1040600088607047CF49096821F48031CD4A1160DA
:104070001146096821F480211160B0F5803F03D01A
:10408000B0F5802F0ED106E0C649096841F48031B1
:10409000C44A116007E0C349096841F4A021C14A3C
:1040A000116000E000BF00BF704710B5014600225C
:1040B000002300204A11012A02D1BA4C236806E0ED
:1040C000022A02D1B74C236A01E0B64C636A01F0C0
:1040D0001F02012494401C400CB1012000E000208C
:1040E00010BD38B5002000900024002500BF31200D
:1040F000FFF7DBFF05460098401C00900098B0F5E4
:10410000A06F01D0002DF2D03120FFF7CEFF08B113
:10411000012400E00024204638BD01460020A14AC9
:10412000106820F0F80040EAC10010607047A04914
:1041300008607047024600209A4B586820F47C10B3
:1041400042EA01031843974B586070479849086644
:10415000704701460020934A506820F0030008434E
:10416000506070478F48406800F00C00704701466F
:1041700000208C4A506820F0F000084350607047DF
:1041800001460020874A506820F4E06008435060F0
:10419000704701460020834A506820F4605040EA8E
:1041A000C1005060704729B17E4A527A02437D4B6C
:1041B0005A7204E07B4A527A82437A4B5A727047B1
:1041C0007B49D8310860704701460020754A506825
:1041D00020F440400843506070470021714A20326B
:1041E0001170704A82F82010012802D004280AD1E8
:1041F00004E001216B4A2032117005E00521694A73
:104200002032117000E000BF00BF704769490860AC
:1042100070476449096A0143624A116270476549FF
:1042200044390860704730B5002100220024002383
:104230005C4D6D6805F00C0121B1042905D00829F9
:1042400023D105E05C4D056022E05B4D05601FE079
:10425000544D6D6805F47012524D6D6805F480344C
:10426000022505EB92421CB9544D554305600BE005
:104270004C4D6D6805F400351DB1504D554305603A
:1042800002E04D4D5543056002E04B4D056000BF17
:1042900000BF444D6D6805F0F0010909484D6B5CA5
:1042A0000568DD4045603F4D6D6805F4E061090A31
:1042B000434D6B5C4568DD4085603A4D6D6805F4A3
:1042C0006051C90A3E4D6B5C4568DD40C560354DA7
:1042D0006D6805F44041890B3A4D6B5CC568B5FBD0
:1042E000F3F5056130BD29B12E4A526902432D4BC9
:1042F0005A6104E02B4A526982432A4B5A61704743
:1043000029B1284A92690243264B9A6104E0254A62
:1043100092698243234B9A61704729B1214AD2693D
:104320000243204BDA6104E01E4AD26982431D4BEE
:10433000DA61704729B11B4AD2680243194BDA602F
:1043400004E0184AD2688243164BDA60704729B1FC
:10435000144A12690243134B1A6104E0114A1269AC
:104360008243104B1A617047124940390860704708
:104370000F49C86470470B49C87170470948406AC3
:1043800040F0807007494862704701460020054AA6
:1043900092680A400AB1012000E0002070470149FC
:1043A00088727047001002400000FFF8FFFFF6FE21
:1043B000000042428004424200127A0000093D009F
:1043C000AC010020BC01002001460020FE4A10681C
:1043D00000F03800084310607047FB49096821F07D
:1043E0000801F94A116011460968014311607047DC
:1043F000F549096821F01001F34A11601146096876
:10440000014311607047F148EF494860F048486047
:104410007047EE48EC494860ED4848607047EA480C
:10442000006940F08000E84908617047E64800698B
:1044300040F08000E449086170470420E249C968FF
:1044400001F0010109B101200EE0DF49C96801F066
:10445000040109B1022007E0DB49C96801F010013D
:1044600009B1032000E00420704700B50246042390
:10447000FFF7E3FF034603E0FFF7DFFF0346521EAB
:10448000012B01D1002AF7D102B90523184600BD3E
:1044900030B5044604254FF43020FFF7E6FF05460B
:1044A000042D17D1C848006940F00200C6490861D0
:1044B00008464461006940F0400008614FF4302034
:1044C000FFF7D3FF0546C048006941F6FD7108407B
:1044D000BD490861284630BD10B504244FF4302092
:1044E000FFF7C3FF0446042C16D1B748006940F01B
:1044F0000400B54908610846006940F040000861C1
:104500004FF43020FFF7B1FF0446AF48006941F691
:10451000FB710840AC490861204610BD00B5024659
:104520000423FFF78AFF034603E0FFF786FF0346F5
:10453000521E012B01D1002AF7D102B905231846DA
:1045400000BD10B504244FF43020FFF7E7FF044608
:10455000042C16D19C48006940F004009A49086177
:104560000846006940F0400008614FF43020FFF732
:10457000D5FF04469448006941F6FB710840924912
:104580000861204610BD00208F49C96901F0020171
:1045900009B1012000E00020704730B5A5250424B2
:1045A000FFF7F1FF00B100254FF43020FFF75DFF6A
:1045B0000446042C3AD18548834988608448886041
:1045C0000846006940F0200008610846006940F094
:1045D000400008614FF43020FFF747FF0446042CE9
:1045E0001BD17948006941F6DF71084076490861BE
:1045F0000846006940F01000086176480580E00236
:10460000FFF733FF0446052C10D06F48006941F6D0
:10461000EF7108406C49086108E0052C06D06A4833
:10462000006941F6EF71084067490861204630BDD6
:1046300078B506460C46042500200090E802FFF7F6
:1046400014FF0546042D24D15F48006940F00100A5
:104650005D4908613480E802FFF707FF0546042D35
:1046600010D1B01C0090200C00990880E802FFF7E0
:10467000FCFE05465448006941F6FE710840524967
:10468000086106E05048006941F6FE7108404E4955
:104690000861284678BD70B504460D460426F00230
:1046A000FFF7E3FE0646042E11D14748006940F0AB
:1046B0000100454908612580F002FFF7D6FE064655
:1046C0004148006941F6FE7108403F4908613046A3
:1046D00070BD70B505460E460424E002FFF7C5FE26
:1046E0000446042C17D13948374988603848886017
:1046F0000846006940F0100008612E80E002FFF7D4
:10470000B4FE0446052C06D02F48006941F6EF712F
:1047100008402D490861204670BD2DE9F04304464C
:104720004FF6FF763746B046B1460425E443E6B27D
:10473000C4F30727C4F307484FEA1469E802FFF7F8
:1047400094FE0546042D49D120481F498860204821
:1047500088600846006940F010000861FF2E06D00E
:104760001C4808300680E802FFF77FFE0546042D4E
:1047700008D1FF2F06D017480A300780E802FFF75C
:1047800074FE0546042D0AD1B8F1FF0F07D0114879
:104790000C30A0F80080E802FFF767FE0546042D04
:1047A0000AD1B9F1FF0F07D00A480E30A0F80090E7
:1047B000E802FFF75AFE0546052D0FD002480069B2
:1047C00041F6EF71084007E00020024023016745F1
:1047D000AB89EFCD00F8FF1F664908612846BDE8A8
:1047E000F08330B5054604244FF43020FFF73DFE3A
:1047F0000446042C41D160485E4988605F48886067
:104800000846006940F0200008610846006940F051
:10481000400008614FF43020FFF727FE0446042CC7
:1048200022D15448006941F6DF71084051490861BE
:104830000846006940F0100008611DB10020504991
:10484000088002E0A5204E4908804FF43020FFF791
:104850000CFE0446052C10D04648006941F6EF7165
:1048600008404449086108E0052C06D04148006929
:1048700041F6DF7108403F490861204630BDF0B580
:1048800005460E46174604243B483A4988603B4893
:104890008860E002FFF7E9FD0446042C19D1354891
:1048A000006940F010003349086147F0F8003043D8
:1048B00028433349891C0880E002FFF7D6FD0446EF
:1048C000052C06D02B48006941F6EF7108402949B4
:1048D00008612046F0BD2748C06980087047254818
:1048E000006A704700202349096801F0200109B1DE
:1048F000012000E00020704729B11E4A12690243DE
:104900001C4B1A6104E01B4A12698243194B1A615D
:10491000704701460020012908D1164AD26902F0E9
:1049200001020AB1012008E0002006E0114AD26825
:104930000A400AB1012000E0002070470D49C8601C
:10494000704704200B49C96801F0010109B1012039
:104950000EE00849C96801F0040109B1022007E02E
:104960000449C96801F0100109B1032000E00420E6
:10497000704700000020024023016745AB89EFCD5E
:1049800000F8FF1F10B50446FA48844208D10121FF
:104990004015FFF7CFFC00216015FFF7CBFC17E0B7
:1049A000F548844208D101210015FFF7C3FC00211E
:1049B0002015FFF7BFFC0BE0F048844208D101212D
:1049C000C803FFF7B7FC00214FF40040FFF7B2FC2B
:1049D00010BD30B50246002000235068E84C20404E
:1049E0000D790C6844EA0524204350609068E54C3A
:1049F0002040D1E902542C434D7944EA4504204338
:104A00009060D06A20F470000C7C641EE4B22343F2
:104A100040EA0350D06230BD002101600171417154
:104A20008160C16001210174704721B1826842F048
:104A30000102826003E0826822F001028260704716
:104A400021B1826842F48072826003E0826822F4BD
:104A500080728260704710B50023CBB21AB14468EF
:104A60001C43446002E044689C43446010BD81687C
:104A700041F0080181607047014600208A6802F019
:104A800008020AB1012000E000207047816841F06F
:104A9000040181607047014600208A6802F0040228
:104AA0000AB1012000E00020704721B1826842F481
:104AB000A002826003E0826822F4A0028260704754
:104AC000014600208A6802F480020AB1012000E059
:104AD0000020704710B50A4600210023416821F4E8
:104AE0006041531E41EA4331416010BD21B142682B
:104AF00042F40062426003E0426822F400624260D5
:104B00007047F0B504460D4600200021092D11DD47
:104B1000E068A5F10A0606EB4607072606FA07F144
:104B20008843A5F10A0606EB460603FA06F1084398
:104B3000E0600CE0206905EB4507072606FA07F15F
:104B4000884305EB450603FA06F108432061072A6E
:104B50000FDA606B561E06EB86071F2606FA07F172
:104B60008843561E06EB860605FA06F10843606385
:104B700022E00D2A0FDA206BD61F06EB86071F26D0
:104B800006FA07F18843D61F06EB860605FA06F1FA
:104B90000843206310E0E06AA2F10D0606EB8607E9
:104BA0001F2606FA07F18843A2F10D0606EB8606DA
:104BB00005FA06F10843E062F0BD21B1826842F4D3
:104BC0008012826003E0826822F480128260704763
:104BD0000146C86C80B2704766484C300068704728
:104BE00021B1426842F48062426003E0426822F4EC
:104BF00080624260704721B1426842F48052426054
:104C000003E0426822F48052426070470A46002165
:104C1000816821F4E04111438160704721B18268CD
:104C200042F40042826003E0826822F40042826023
:104C3000704721B1826842F40212826003E0826808
:104C400022F4021282607047014600208A6802F452
:104C500000120AB1012000E000207047F0B50446C0
:104C60001546002000220026092911DDE068A1F187
:104C70000A0707EB470C072707FA0CF29043A1F14C
:104C80000A0707EB470703FA07F21043E0600CE05E
:104C9000206901EB410C072707FA0CF2904301EB66
:104CA000410703FA07F210432061A06BC0F30156DD
:104CB000EF1C06F1010CA7EB0C0707EB870C1F2775
:104CC00007FA0CF29043EF1C06F1010CA7EB0C075E
:104CD00007EB870701FA07F21043A063F0BD10B598
:104CE0000A4600210023816B21F44011531E41EA42
:104CF0000351816310BD08B5002300930090009B11
:104D00000B440093009B1A6008BD08B502460020C2
:104D10000090009201F12800009B18440090009838
:104D2000006880B208BD0A4600214168164B194050
:104D30001143416070474162826270470A46002118
:104D4000416821F01F0111434160704740B109499A
:104D50000831096841F40001064A0832116007E091
:104D600004490831096821F40001024A083211603F
:104D7000704700000024014000280140003C014031
:104D8000FFFEF0FFFDF7F1FFFFFD3FFF02460020B1
:104D900013680B400BB1012000E000207047CA43AC
:104DA0000260704770B502460020002300240B12F9
:104DB0005568CEB205EA060415681D4015B10CB160
:104DC000012000E0002070BD00220A12D3430360DE
:104DD0007047000001684FF6FE721140016000212B
:104DE000016041608160C1608D49884208D18C4971
:104DF0000839496841F00F01894A083A51608AE050
:104E000087491431884208D185490839496841F0F9
:104E1000F001834A083A51607DE081492831884297
:104E200008D17F490839496841F470617C4A083AE1
:104E3000516070E07A493C31884208D1784908399C
:104E4000496841F47041764A083A516063E0744918
:104E50005031884208D172490839496841F47021BB
:104E60006F4A083A516056E06D496431884208D172
:104E70006B490839496841F47001694A083A516040
:104E800049E067497831884208D16549083949685D
:104E900041F07061624A083A51603CE061498842E1
:104EA00006D1011F096841F00F01021F116032E0B5
:104EB0005C491431884208D15A49091F096841F0F8
:104EC000F001584A121F116025E0564928318842E6
:104ED00008D15449091F096841F47061514A121FF1
:104EE000116018E04F493C31884208D14D49091FF3
:104EF000096841F470414B4A121F11600BE04949A7
:104F00005031884207D14749091F096841F470218F
:104F1000444A121F1160704710B50022026847F61C
:104F2000F0739A430C6A8B6823430C6923434C69E2
:104F300023438C692343CC6923434C6A23438C6A03
:104F400023431A430260CB6843600B6883604B685D
:104F5000C36010BD0021016041608160C1600161DA
:104F600041618161C161016241628162704721B129
:104F7000026842F00102026004E002684FF6FE732C
:104F80001A40026070471AB103680B43036002E0E5
:104F900003688B430360704741607047014648686F
:104FA00080B2704701460020002201F080531BB1FF
:104FB0001C4B083B1A6802E0194B083B1A6802EACE
:104FC00001030BB1012000E00020704700F0805188
:104FD00019B11449091F086002E0114908394860F5
:104FE000704701460020002201F080531BB10D4B99
:104FF000083B1A6802E00A4B083B1A6802EA010300
:105000000BB1012000E00020704700F0805119B181
:105010000449091F086002E00149083948607047E7
:10502000080002400804024010B50446FE488442CD
:1050300008D10121C014FFF77DF90021E014FFF72A
:1050400079F9C4E0B4F1804F08D101210846FFF797
:105050007EF900210120FFF77AF9B8E0F348844295
:1050600008D101210220FFF772F900210220FFF789
:105070006EF9ACE0EE48844208D101210420FFF72C
:1050800066F900210420FFF762F9A0E0E9488442B4
:1050900008D101210820FFF75AF900210820FFF765
:1050A00056F994E0E448844208D101211020FFF72A
:1050B0004EF900211020FFF74AF988E0DF488442CA
:1050C00008D101212020FFF742F900212020FFF71D
:1050D0003EF97CE0DA48844208D101214014FFF710
:1050E00029F900216014FFF725F970E0D5488442C2
:1050F00009D10121C804FFF71DF900214FF4002058
:10510000FFF718F963E0D048844209D1012108056E
:10511000FFF710F900214FF48010FFF70BF956E06C
:10512000CA48844209D101214805FFF703F900214B
:105130004FF40010FFF7FEF849E0C548844208D15B
:1051400001214020FFF703F900214020FFF7FFF87D
:105150003DE0C048844208D101218020FFF7F7F8E4
:1051600000218020FFF7F3F831E0BB48844208D1EA
:1051700001218015FFF7EBF80021A015FFF7E7F8F4
:1051800025E0B648844209D101210804FFF7D2F88E
:1051900000214FF48030FFF7CDF818E0B04884428A
:1051A00009D101214804FFF7C5F800214FF4003070
:1051B000FFF7C0F80BE0AB48844208D10121880416
:1051C000FFF7B8F800214FF48020FFF7B3F810BDC7
:1051D00000220288944B98420ED0994B98420BD0F3
:1051E000B0F1804F08D0914B984205D0904B984237
:1051F00002D0904B984204D14FF68F731A404B88DF
:105200001A438D4B984207D08C4B984204D04FF6EE
:10521000FF431A40CB881A4302808B8883850B8812
:105220000385814B98420BD0854B984208D08B4B1D
:10523000984205D08A4B984202D08A4B984201D1BD
:105240000B7A038601238382704770B50024002205
:105250000023058C4FF6FE7635400584028C83884A
:10526000048B4FF68F752C40B51E2C400D882C43B7
:10527000751E2A400D892A434D882A436A4DA8424B
:105280000BD06F4DA84208D0744DA84205D0744D84
:10529000A84202D0734DA84213D14FF6F7752A40A9
:1052A0004D892A434FF6FB752A408D882A434FF6D5
:1052B000FF652B404FF6FF552B408D892B43CD8941
:1052C0002B4383800483CD888586028470BD70B5AE
:1052D000002400220023058C4FF6EF76354005842C
:1052E000028C8388048B48F6FF752C404FF6FF45EF
:1052F0002C400D884FF6FF7606EA05252C434FF625
:10530000DF752A400D8906EA05152A434D8806EA0D
:1053100005152A43444DA84202D0494DA8421DD14B
:105320004FF67F752A404D894FF6FF7606EA051540
:105330002A434FF6BF752A408D8806EA05152A4391
:105340004FF6FF352B404FF2FF752B408D8906EA53
:1053500085052B43CD8906EA85052B43838004838D
:10536000CD880587028470BD70B50024002200231B
:10537000058C4FF6FF6635400584028C8388848B4C
:105380004FF68F752C404FF6FC752C400D882C4342
:105390004FF6FF552A400D894FF6FF7606EA0525A0
:1053A0002A434D8806EA05252A431F4DA84202D00C
:1053B000234DA8421DD14FF2FF752A404D894FF66B
:1053C000FF7606EA05252A434FF6FF352A408D88E9
:1053D00006EA05252A434EF6FF752B404DF6FF756C
:1053E0002B408D8906EA05152B43CD8906EA051564
:1053F0002B4383808483CD888587028470BD70B5FC
:10540000002200230024058C4EF6FF7635400584EB
:10541000038C8488828B48F6FF752A404FF6FF453F
:105420002A400D8820E00000002C014000040040CC
:1054300000080040000C0040001000400014004034
:1054400000340140004C0140005001400054014034
:1054500000180040001C00400020004000400140B7
:1054600000440140004801404FF6FF7606EA05255A
:105470002A434DF6FF752B400D8906EA05352B436F
:105480004D8806EA05352B43FA4DA84202D0FA4D65
:10549000A84208D14BF6FF752C408D894FF6FF7658
:1054A00006EA85152C4384808283CD88A0F840507D
:1054B000038470BD828B4FF2FF331A408283828B4C
:1054C0004FF6FF7303EA01231A4382837047F0B556
:1054D0000C461546002200210026078C4EF6FF7C64
:1054E00007EA0C070784828B018C4FF6FF7707EAE7
:1054F000043640F6FF473A404FF6FF7707EA0527A4
:105500003A434FF6FF7707EA03373A43D94FB84299
:105510000ED0D94FB8420BD0B0F1804F08D0D74F42
:10552000B84205D0D64FB84202D0D64FB84206D1C5
:105530004DF6FF77394046F48057394305E047F68A
:10554000FF57394044F48057394382830184F0BDCA
:10555000828B4FF6F3731A408283828B0A438283D5
:105560007047F0B50C461546002200210026078C36
:105570004FF6FF6C07EA0C070784828B018C4FF60D
:10558000FF7707EA04264FF60C773A404FF6FF778D
:1055900007EA03172F433A43B64FB8420ED0B64F2F
:1055A000B8420BD0B0F1804F08D0B44FB84205D00C
:1055B000B34FB84202D0B34FB84206D14FF6FF57AF
:1055C000394046F48077394305E04FF2FF573940C0
:1055D00044F48077394382830184F0BD028B4FF21B
:1055E000FF331A400283028B4FF6FF7303EA012355
:1055F0001A4302837047F0B50C461546002200217D
:105600000026078C4FF6EF7C07EA0C070784028B15
:10561000018C4FF6FF7707EA041640F6FF473A4041
:105620004FF6FF7707EA03373A434FF6FF7707EA6B
:1056300005273A438F4FB8420ED08F4FB8420BD058
:10564000B0F1804F08D08D4FB84205D08C4FB84292
:1056500002D08C4FB84206D14FF6DF77394046F082
:105660001007394305E04FF65F77394044F01007E3
:10567000394302830184F0BD028B4FF6F3731A4065
:105680000283028B0A4302837047F0B50C4615462D
:1056900000220021068C4FF6FE773E400684028BE6
:1056A000018C4FF60C7632407E1C06EA03162E4320
:1056B0003243704EB0420ED06F4EB0420BD0B0F1BC
:1056C000804F08D06D4EB04205D06D4EB04202D032
:1056D0006C4EB04206D14FF6FD76314044F00106E3
:1056E000314305E04FF6F576314044F00106314391
:1056F00002830184F0BD70B505460C465D488542C5
:105700000ED05D4885420BD0B5F1804F08D05B4884
:10571000854205D05A48854202D05A48854200D178
:1057200000E000BF208850B92389A28861882846FC
:10573000FFF7ABFFE1882846FFF79EFF25E02088B2
:1057400004280AD12389A28861882846FFF753FFDD
:10575000E1882846FFF742FF17E0208808280AD191
:105760002389A28861882846FFF7FBFEE188284646
:10577000FFF7EEFE09E02389A28861882846FFF73B
:10578000A6FEE1882846FFF795FE70BD2DE9F041A1
:1057900005460C4600260127608808B9022600E06D
:1057A0000026A088012801D1022700E001272088D7
:1057B000A0B92389A28861882846FFF766FFE1889F
:1057C0002846FFF759FF23893A4631462846FFF716
:1057D00012FFE1882846FFF701FF13E02389A28822
:1057E00061882846FFF707FFE1882846FFF7F6FEA5
:1057F00023893A4631462846FFF747FFE188284685
:10580000FFF73AFFBDE8F0810A884B881A438B887E
:105810001A43CB881A430B891A434B891A438B8945
:105820001A43A0F8442070474FF6FF718180002191
:105830000180C18041800172704700210180418058
:105840008180C180018141818181C18170470021B6
:1058500001804180012181800021C1800181704748
:105860000021018041808180C1800181418181814D
:1058700070470000002C014000340140000400404B
:1058800000080040000C004021B1028842F00102F3
:10589000028004E002884FF6FE731A4002807047CF
:1058A00031B1B0F8442042F40042A0F8442005E0B1
:1058B000B0F84420C2F30E02A0F8442070471AB199
:1058C00083890B43838102E083898B438381704703
:1058D0008182704741EA0203A0F8483070471AB14C
:1058E00083890B43838102E083898B4383817047E3
:1058F00001894FF6F8721140018170470A46002174
:1059000001894FF68F73194011430181704730B5FB
:1059100004460D4629462046FFF7F0FF208940F057
:105920000700208130BD2DE9F04104460D461646A2
:105930001F46602D06D13B46012231462046FFF727
:105940005AFE05E03B46012231462046FFF79DFE08
:1059500029462046FFF7D2FF208940F0070020812A
:10596000BDE8F08130B50C4600210189C9B24FF67F
:10597000FF7505EA0325154325432943018130BD01
:105980002DE9F04105460E46174698460024434649
:105990003A4631462846FFF7E5FF2C894FF6F87066
:1059A000044044F007044FF68F70044044F0700444
:1059B0002C81BDE8F081F0B504460D4616461F4621
:1059C0003B46324629462046FFF7CCFF208940F46B
:1059D00080402081F0BD0185828270470A46002107
:1059E00001884FF68F731940114301807047F0B55D
:1059F0000C4615461E460021002200230189028B19
:105A0000038C4FF6F877394021434FF6FC473A4074
:105A100040F201173A434FF6DD773B404FF6FF77F0
:105A200007EA06172F433B43018102830384F0BD3D
:105A30000A460021018B4FF68F73194011430183F1
:105A400070470A460021018B48F6FF7319404FF654
:105A5000FF7303EA02231943018370470A460021BA
:105A6000818B4FF68F7319401143818370470A462B
:105A70000021818B48F6FF7319404FF6FF7303EA4C
:105A8000022319438183704721B1028842F08002CA
:105A9000028004E002884FF67F731A40028070474C
:105AA00021B1828842F00402828004E082884FF6AD
:105AB000FB731A408280704721B1828842F008024D
:105AC000828004E082884FF6F7731A408280704724
:105AD00021B1828842F00102828004E082884FF680
